:100000000C942A000C9434000C9434000C943400AA
:100010000C9434000C9434000C9434000C94340090
:100020000C9434000C9434000C9434000C94340080
:100030000C9434000C9434000C9434000C94340070
:100040000C9434000C9434000C9434000C94340060
:100050000C94340011241FBECFE5D8E0DEBFCDBF25
:100060000E947C010C9470020C940000683008F02F
:1000700079C0442319F04130E9F176C0813099F01C
:1000800028F08230E9F0833041F170C02AB381E07A
:1000900090E002C0880F991F6A95E2F7809582234D
:1000A0008ABB81E0089527B381E090E002C0880F09
:1000B000991F6A95E2F78095822387BB81E00895B6
:1000C00024B381E090E002C0880F991F6A95E2F79F
:1000D0008095822384BB81E0089521B381E090E084
:1000E00002C0880F991F6A95E2F78095822381BB31
:1000F00081E00895813091F028F08230D9F083308A
:1001000029F136C02AB381E090E002C0880F991F20
:100110006A95E2F7822B8ABB81E0089527B381E0DC
:1001200090E002C0880F991F6A95E2F7822B87BB87
:1001300081E0089524B381E090E002C0880F991F08
:100140006A95E2F7822B84BB81E0089521B381E0B8
:1001500090E002C0880F991F6A95E2F7822B81BB5D
:1001600081E0089582E0089582E0089582E0089594
:1001700082E00895683008F079C0442319F04130D6
:10018000E9F176C0813099F028F08230E9F08330CF
:1001900041F170C02BB381E090E002C0880F991F3D
:1001A0006A95E2F7809582238BBB81E0089528B39E
:1001B00081E090E002C0880F991F6A95E2F7809570
:1001C000822388BB81E0089525B381E090E002C0DE
:1001D000880F991F6A95E2F78095822385BB81E09D
:1001E000089522B381E090E002C0880F991F6A95BC
:1001F000E2F78095822382BB81E00895813091F0FF
:1002000028F08230D9F0833029F136C02BB381E059
:1002100090E002C0880F991F6A95E2F7822B8BBB92
:1002200081E0089528B381E090E002C0880F991F13
:100230006A95E2F7822B88BB81E0089525B381E0BF
:1002400090E002C0880F991F6A95E2F7822B85BB68
:1002500081E0089522B381E090E002C0880F991FE9
:100260006A95E2F7822B82BB81E0089582E00895CF
:1002700082E0089582E0089582E008956830C0F534
:10028000813091F028F08230D9F0833029F132C0EA
:1002900089B390E002C0959587956A95E2F78170E1
:1002A000FA01808381E0089586B390E002C09595BD
:1002B00087956A95E2F78170FA01808381E008955D
:1002C00083B390E002C0959587956A95E2F78170B7
:1002D000FA01808381E0089580B390E002C0959593
:1002E00087956A95E2F78170FA01808381E008952D
:1002F00082E0089582E00895CF93DF9300D000D08C
:100300001F92CDB7DEB70E94050210E00BC040E09F
:10031000612F80E00E94360041E0612F80E00E9462
:10032000BA001F5F153098F381E089838A838B833D
:100330008C838D83AE014F5F5F4F60E080E00E9451
:100340003E01AE014E5F5F4F61E080E00E943E01E2
:10035000AE014D5F5F4F62E080E00E943E01AE0162
:100360004C5F5F4F63E080E00E943E01AE014B5F57
:100370005F4F64E080E00E943E019981992311F073
:1003800080E001C081E02A81211101C08F5F3B81A3
:10039000311101C08F5F4C81411101C08F5F5D81C0
:1003A000511103C00E94FA011BC0823018F00E9454
:1003B000FA0116C0911103C00E941C0211C0211144
:1003C00003C00E9431020CC0311103C00E944602DA
:1003D00007C0411103C00E945B0202C00E94FA01E3
:1003E0002FE788E391E0215080409040E1F700C082
:1003F0000000A0CF40E061E082E00E94BA0040E04F
:1004000063E082E00E94BA00089541E060E082E08B
:100410000E94360041E061E082E00E94360041E047
:1004200062E082E00E94360041E063E082E00E94E8
:1004300036000E94FA01089540E060E082E00E94E8
:10044000BA0040E062E082E00E94BA0041E061E070
:1004500082E00E94BA0041E063E082E00E94BA00BC
:10046000089541E060E082E00E94BA0041E062E06D
:1004700082E00E94BA0041E061E082E00E94BA009E
:1004800041E063E082E00E94BA00089540E062E04B
:1004900082E00E94BA0041E063E082E00E94BA007C
:1004A00041E060E082E00E94BA0041E061E082E069
:1004B0000E94BA00089540E060E082E00E94BA0025
:1004C00041E061E082E00E94BA0041E062E082E047
:1004D0000E94BA0041E063E082E00E94BA00089501
:0404E000F894FFCFBE
:00000001FF
