:100000000C942A000C943F000C943F000C943F0089
:100010000C943F000C943F000C943F000C943F0064
:100020000C943F000C943F000C943F000C943F0054
:100030000C943F000C943F000C943F000C943F0044
:100040000C943F000C943F000C943F000C943F0034
:100050000C943F0011241FBECFE5D8E0DEBFCDBF1A
:1000600010E0A0E6B0E0EAE0F4E002C005900D92F6
:10007000AA36B107D9F70E945F010C9403020C94D1
:100080000000683008F079C0442319F04130E9F1EC
:1000900076C0813099F028F08230E9F0833041F168
:1000A00070C02AB381E090E002C0880F991F6A9562
:1000B000E2F7809582238ABB81E0089527B381E02F
:1000C00090E002C0880F991F6A95E2F7809582231D
:1000D00087BB81E0089524B381E090E002C0880FDF
:1000E000991F6A95E2F78095822384BB81E0089589
:1000F00021B381E090E002C0880F991F6A95E2F772
:100100008095822381BB81E00895813091F028F0B1
:100110008230D9F0833029F136C02AB381E090E0F3
:1001200002C0880F991F6A95E2F7822B8ABB81E093
:10013000089527B381E090E002C0880F991F6A9567
:10014000E2F7822B87BB81E0089524B381E090E041
:1001500002C0880F991F6A95E2F7822B84BB81E069
:10016000089521B381E090E002C0880F991F6A953D
:10017000E2F7822B81BB81E0089582E0089582E05E
:10018000089582E0089582E00895683008F079C00B
:10019000442319F04130E9F176C0813099F028F01C
:1001A0008230E9F0833041F170C02BB381E090E000
:1001B00002C0880F991F6A95E2F7809582238BBB56
:1001C00081E0089528B381E090E002C0880F991F74
:1001D0006A95E2F78095822388BB81E0089525B374
:1001E00081E090E002C0880F991F6A95E2F7809540
:1001F000822385BB81E0089522B381E090E002C0B4
:10020000880F991F6A95E2F78095822382BB81E06F
:100210000895813091F028F08230D9F0833029F1AF
:1002200036C02BB381E090E002C0880F991F6A9519
:10023000E2F7822B8BBB81E0089528B381E090E048
:1002400002C0880F991F6A95E2F7822B88BB81E074
:10025000089525B381E090E002C0880F991F6A9548
:10026000E2F7822B85BB81E0089522B381E090E024
:1002700002C0880F991F6A95E2F7822B82BB81E04A
:10028000089582E0089582E0089582E0089582E072
:100290000895813049F028F0823049F0833051F0E0
:1002A0000CC06ABB81E0089567BB81E0089564BB20
:1002B00081E0089561BB81E0089582E0089541E006
:1002C00060E082E00E94410041E061E082E00E9443
:1002D000410041E062E082E00E9441006FEF80E077
:1002E0000E94490141E061E081E00E94410041E05B
:1002F00062E081E00E94410040E062E082E00E9412
:10030000C50040E061E082E00E94C50041E060E09D
:1003100082E00E94C500DFE009C08D2F0E94D1015C
:10032000CF5F01C0C0E0C233C0F3D1501D16D4F37B
:1003300040E062E082E00E94C50041E061E082E0CE
:100340000E94C50040E060E082E00E94C500D5E068
:1003500009C08D2F0E94D101CF5F01C0C0E0C23320
:10036000C0F3D1501D16D4F341E062E082E00E9458
:10037000C50040E061E082E00E94C50040E060E02E
:1003800082E00E94C500DAE009C08D2F0E94D101F1
:10039000CF5F01C0C0E0C233C0F3D1501D16D4F30B
:1003A000ABCF98B39D7F98BB98B3946098BB9DECFE
:1003B000899F912D1124969596959695E92FF0E0B9
:1003C000E05AFF4F20812BBBEFE3FCE93197F1F7B7
:1003D00000C0000028B3226028BB28B32B7F28BBB5
:1003E000990F292F220F220F920F891BE82FF0E07F
:1003F000E05AFF4F80818BBB8FE39CE90197F1F7B7
:0A04000000C000000895F894FFCF3B
:0A040A003F065B4F666D7D077F6FB4
:00000001FF
