S01700004763634170706C69636174696F6E312E737265635B
S11300000C942A000C94F2010C9452020C944700B4
S11300100C9447000C9447000C9447000C94470040
S11300200C9447000C9447000C9447000C94470030
S11300300C9447000C9447000C9447000C94470020
S11300400C9447000C9447000C9447000C94470010
S11300500C94470011241FBECFE5D8E0DEBFCDBF0E
S113006010E0A0E6B0E0EAE1F8E002C005900D92ED
S1130070A637B107D9F720E0A6E7B0E001C01D928A
S1130080AA37B207E1F70E948D030C940B040C9479
S11300900000683008F079C0442319F04130E9F1D8
S11300A076C0813099F028F08230E9F0833041F154
S11300B070C02AB381E090E002C0880F991F6A954E
S11300C0E2F7809582238ABB81E0089527B381E01B
S11300D090E002C0880F991F6A95E2F78095822309
S11300E087BB81E0089524B381E090E002C0880FCB
S11300F0991F6A95E2F78095822384BB81E0089575
S113010021B381E090E002C0880F991F6A95E2F75D
S11301108095822381BB81E00895813091F028F09D
S11301208230D9F0833029F136C02AB381E090E0DF
S113013002C0880F991F6A95E2F7822B8ABB81E07F
S1130140089527B381E090E002C0880F991F6A9553
S1130150E2F7822B87BB81E0089524B381E090E02D
S113016002C0880F991F6A95E2F7822B84BB81E055
S1130170089521B381E090E002C0880F991F6A9529
S1130180E2F7822B81BB81E0089582E0089582E04A
S1130190089582E0089582E00895683008F079C0F7
S11301A0442319F04130E9F176C0813099F028F008
S11301B08230E9F0833041F170C02BB381E090E0EC
S11301C002C0880F991F6A95E2F7809582238BBB42
S11301D081E0089528B381E090E002C0880F991F60
S11301E06A95E2F78095822388BB81E0089525B360
S11301F081E090E002C0880F991F6A95E2F780952C
S1130200822385BB81E0089522B381E090E002C09F
S1130210880F991F6A95E2F78095822382BB81E05B
S11302200895813091F028F08230D9F0833029F19B
S113023036C02BB381E090E002C0880F991F6A9505
S1130240E2F7822B8BBB81E0089528B381E090E034
S113025002C0880F991F6A95E2F7822B88BB81E060
S1130260089525B381E090E002C0880F991F6A9534
S1130270E2F7822B85BB81E0089522B381E090E010
S113028002C0880F991F6A95E2F7822B82BB81E036
S1130290089582E0089582E0089582E0089582E05E
S11302A008956830C0F5813091F028F08230D9F09B
S11302B0833029F132C02BB381E090E002C0880F73
S11302C0991F6A95E2F782278BBB81E0089528B3D2
S11302D081E090E002C0880F991F6A95E2F78227B7
S11302E088BB81E0089525B381E090E002C0880FC7
S11302F0991F6A95E2F7822785BB81E0089522B3AE
S113030081E090E002C0880F991F6A95E2F7822786
S113031082BB81E0089582E0089582E008958130EF
S113032049F028F0823049F0833051F00CC06ABBA8
S113033081E0089567BB81E0089564BB81E008957E
S113034061BB81E0089582E00895813049F028F08E
S1130350823049F0833051F00CC06BBB81E00895CA
S113036068BB81E0089565BB81E0089562BB81E0CC
S1130370089582E008959BB790649BBF813071F02B
S113038028F0823099F08330C9F020C085B78E7F81
S113039085BF85B78D7F85BF81E0089585B781606E
S11303A085BF85B78D7F85BF81E0089585B78E7F32
S11303B085BF85B7826085BF81E0089585B7816078
S11303C085BF85B7826085BF81E0089582E0089586
S11303D0009731F0909377008093760081E0089540
S11303E082E008951F920F920FB60F9211242F935B
S11303F03F934F935F936F937F938F939F93AF93A9
S1130400BF93EF93FF93E0917600F09177003097DC
S113041009F00995FF91EF91BF91AF919F918F9151
S11304207F916F915F914F913F912F910F900FBEEC
S11304300F901F9018959BB790689BBF813071F007
S113044028F0823099F08330C9F020C085B78B7FC3
S113045085BF85B7877F85BF81E0089585B78460B0
S113046085BF85B7877F85BF81E0089585B78B7F7A
S113047085BF85B7886085BF81E0089585B78460AE
S113048085BF85B7886085BF81E0089582E00895BF
S1130490009731F0909379008093780081E008957B
S11304A082E008951F920F920FB60F9211242F939A
S11304B03F934F935F936F937F938F939F93AF93E8
S11304C0BF93EF93FF93E0917800F0917900309718
S11304D009F00995FF91EF91BF91AF919F918F9191
S11304E07F916F915F914F913F912F910F900FBE2C
S11304F00F901F9018958FB780688FBF0895CF9382
S1130500C82F84FB442740F964E083E00E94CD00B7
S1130510C5FB442740F965E083E00E94CD00C6FB9B
S1130520442740F966E083E00E94CD004C2F441F2D
S11305304427441F67E083E00E94CD00CF910895D3
S113054041E067E082E00E94CD008FE39FE10197E4
S1130550F1F700C0000040E067E082E00E94CD00B7
S11305600895CF93C82F41E065E082E00E94CD005A
S11305708C2F0E947F020E94A0028C2F8295807F84
S11305800E947F020E94A002CF910895CF93C82FAA
S113059040E065E082E00E94CD008C2F0E947F0243
S11305A00E94A0028C2F8295807F0E947F020E946D
S11305B0A002CF91089541E065E082E00E944900E5
S11305C041E067E082E00E9449002FEF83EF91E071
S11305D0215080409040E1F700C0000041E064E019
S11305E083E00E94490041E065E083E00E94490005
S11305F041E066E083E00E94490041E067E083E077
S11306000E94490080E20E947F020E94A00280E2D0
S11306100E947F020E94A00280EC0E947F020E943E
S1130620A0028EE00E94C60281E00E94C60286E01B
S11306300E94C6020895CF93DF93EC0103C0219674
S11306400E94B10288818111FACFDF91CF91089580
S1130650CF92DF92EF92FF920F931F938B019C0135
S1130660672B682B692B49F580E30E94B10245C0D2
S1130670DC01CB01880F991FAA1FBB1F6C017D01F0
S1130680CC0CDD1CEE1CFF1CCC0CDD1CEE1CFF1C7A
S1130690C80ED91EEA1EFB1EC901B8012AE030E0CB
S11306A040E050E00E94E9036C0D7D1D8E1D9F1DEE
S11306B0022F132F242F352F04C061E070E080E057
S11306C090E0011511052105310591F62AE030E08D
S11306D040E050E00E94E903E22EF32E042F152F90
S11306E080E3860F0E94B1026E2D7F2D802F912F03
S11306F0613071058105910549F71F910F91FF90B4
S1130700EF90DF90CF90089581E08093600008958A
S113071060E080E00E945101089541E060E080E0E3
S11307200E9449006FEF81E00E948F0140E062E087
S113073083E00E94490040E063E083E00E944900B6
S113074041E062E083E00E94CD0041E063E083E0A9
S11307500E94CD000E94DB0288E893E00E94E80139
S113076084E893E00E94480282E00E94BB0182E098
S11307700E941B020E947B02E0916000F0E0EF59AE
S1130780FF4F608181E00E94A50181E00E94C602C2
S11307908BE690E00E941B036091600070E080E0B3
S11307A090E00E9428032FEF83ED90E321508040D6
S11307B09040E1F700C00000809160008F5F80935B
S11307C06000809160008A30B8F281E0809360001C
S11307D0D3CFA1E21A2EAA1BBB1BFD010DC0AA1F79
S11307E0BB1FEE1FFF1FA217B307E407F50720F096
S11307F0A21BB30BE40BF50B661F771F881F991F11
S11308001A9469F760957095809590959B01AC0159
S10D0810BD01CF010895F894FFCF55
S113081A013F065B4F666D7D077F6F436F756E748C
S109082A65723A20000093
S9030000FC
