S01700004763634170706C69636174696F6E312E737265635B
S11300000C942A000C943F000C943F000C943F0085
S11300100C943F000C943F000C943F000C943F0060
S11300200C943F000C943F000C943F000C943F0050
S11300300C943F000C943F000C943F000C943F0040
S11300400C943F000C943F000C943F000C943F0030
S11300500C943F0011241FBECFE5D8E0DEBFCDBF16
S113006010E0A0E6B0E0E4E0F7E002C005900D92F5
S1130070AE37B107D9F70E94B2020C9480030C94F6
S1130080000087B1806487B987B18F7787B987B15A
S11300908F7D87B986B1816086B986B1826086B961
S11300A086B1846086B986B1806886B9089597B1AF
S11300B0907E97B997B1892B87B986B1806486B948
S11300C0349BFECF86B1806186B984B195B1089521
S11300D0683008F079C0442319F04130E9F176C062
S11300E0813099F028F08230E9F0833041F170C01A
S11300F02AB381E090E002C0880F991F6A95E2F765
S1130100809582238ABB81E0089527B381E090E043
S113011002C0880F991F6A95E2F78095822387BBF6
S113012081E0089524B381E090E002C0880F991F14
S11301306A95E2F78095822384BB81E0089521B318
S113014081E090E002C0880F991F6A95E2F78095DC
S1130150822381BB81E00895813091F028F08230C0
S1130160D9F0833029F136C02AB381E090E002C08F
S1130170880F991F6A95E2F7822B8ABB81E0089564
S113018027B381E090E002C0880F991F6A95E2F7D7
S1130190822B87BB81E0089524B381E090E002C004
S11301A0880F991F6A95E2F7822B84BB81E008953A
S11301B021B381E090E002C0880F991F6A95E2F7AD
S11301C0822B81BB81E0089582E0089582E0089546
S11301D082E0089582E00895683008F079C04423ED
S11301E019F04130E9F176C0813099F028F082307D
S11301F0E9F0833041F170C02BB381E090E002C09C
S1130200880F991F6A95E2F7809582238BBB81E062
S1130210089528B381E090E002C0880F991F6A9581
S1130220E2F78095822388BB81E0089525B381E0BD
S113023090E002C0880F991F6A95E2F780958223A7
S113024085BB81E0089522B381E090E002C0880F6D
S1130250991F6A95E2F78095822382BB81E0089515
S1130260813091F028F08230D9F0833029F136C002
S11302702BB381E090E002C0880F991F6A95E2F7E2
S1130280822B8BBB81E0089528B381E090E002C00B
S1130290880F991F6A95E2F7822B88BB81E0089545
S11302A025B381E090E002C0880F991F6A95E2F7B8
S11302B0822B85BB81E0089522B381E090E002C0E7
S11302C0880F991F6A95E2F7822B82BB81E008951B
S11302D082E0089582E0089582E0089582E008951E
S11302E0813049F028F0823049F0833051F00CC05D
S11302F06ABB81E0089567BB81E0089564BB81E037
S1130300089561BB81E0089582E00895813049F049
S113031028F0823049F0833051F00CC06BBB81E08F
S1130320089568BB81E0089565BB81E0089562BBD0
S113033081E0089582E00895CF93C82F84FB442779
S113034040F964E083E00E94EC00C5FB442740F9D7
S113035065E083E00E94EC00C6FB442740F966E0B8
S113036083E00E94EC004C2F441F4427441F67E0A5
S113037083E00E94EC00CF91089541E067E082E0C1
S11303800E94EC008FE39FE10197F1F700C00000A9
S113039040E067E082E00E94EC000895CF93C82F0C
S11303A041E065E082E00E94EC008C2F0E949C01F9
S11303B00E94BD018C2F8295807F0E949C010E9427
S11303C0BD01CF910895CF93C82F40E065E082E04E
S11303D00E94EC008C2F0E949C010E94BD018C2F76
S11303E08295807F0E949C010E94BD01CF91089557
S11303F041E065E082E00E94680041E067E082E05D
S11304000E9468002FEF83EF91E0215080409040DC
S1130410E1F700C0000041E064E083E00E9468006E
S113042041E065E083E00E94680041E066E083E02B
S11304300E94680041E067E083E00E94680080E277
S11304400E949C010E94BD0180E20E949C010E94C6
S1130450BD0180EC0E949C010E94BD018EE00E94BF
S1130460E30181E00E94E30186E00E94E301089534
S1130470CF93DF93EC0103C021960E94CE018881C3
S11304808111FACFDF91CF910895662319F061307D
S113049031F00AC080580E94E30181E0089580543D
S11304A00E94E30181E0089582E00895CF92DF92F3
S11304B0EF92FF920F931F938B019C01672B682B84
S11304C0692B49F580E30E94CE0145C0DC01CB01D4
S11304D0880F991FAA1FBB1F6C017D01CC0CDD1C6A
S11304E0EE1CFF1CCC0CDD1CEE1CFF1CC80ED91E20
S11304F0EA1EFB1EC901B8012AE030E040E050E0EA
S11305000E9430036C0D7D1D8E1D9F1D022F132F25
S1130510242F352F04C061E070E080E090E00115E5
S113052011052105310591F62AE030E040E050E064
S11305300E943003E22EF32E042F152F80E3860F42
S11305400E94CE016E2D7F2D802F912F6130710579
S11305508105910549F71F910F91FF90EF90DF906E
S1130560CF9008950E94F8010E9441006FEF81E04E
S11305700E94700160E081E00E94860140E060E03A
S113058080E00E94680080E00E9457004C01A12C8A
S1130590B12CA4E6B0E0A50194010E9452032FEF10
S11305A033E040E050E00E94300369017A01822F79
S11305B090E0880F991F880F991F880F991F64E690
S11305C070E00E941C0321E030E002C0220F331FC0
S11305D06A95E2F76FEF620F81E00E94860160E0A6
S11305E080E00E94450280E690E00E943802C50146
S11305F0B4010E9456028AE690E00E94380261E04B
S113060080E00E9445028FE690E00E943802C70114
S1130610B6017727882799270E94560289E790E038
S11306200E9438022FEF81EE94E0215080409040E8
S1130630E1F700C00000A7CF97FB072E16F4009443
S113064007D077FD09D00E945D0307FC05D03EF476
S1130650909581959F4F0895709561957F4F08956A
S1130660A1E21A2EAA1BBB1BFD010DC0AA1FBB1FB2
S1130670EE1FFF1FA217B307E407F50720F0A21B24
S1130680B30BE40BF50B661F771F881F991F1A9491
S113069069F760957095809590959B01AC01BD01BB
S11306A0CF0108950E947103A59F900DB49F900DF2
S11306B0A49F800D911D11240895AA1BBB1B51E119
S11306C007C0AA1FBB1FA617B70710F0A61BB70BBE
S11306D0881F991F5A95A9F780959095BC01CD0163
S11306E00895A29FB001B39FC001A39F700D811D07
S11306F01124911DB29F700D811D1124911D089527
S1070700F894FFCF97
S11307044144432056616C3A2000202020200050AC
S1110714657263656E743A2000252020200073
S9030000FC
